:0A0000001BC089C1FDCFFCCF5AC11F
:10000A00FACFF9CFF8CFF7CF41C0F5CFF4CFF3CF7E
:10001A00F2CFF1CFF0CFEFCFEECFEDCF000001005E
:10002A000000010000000A00040026000000F89405
:10003A00EE27ECBBF1E0FBBFEBBFE5BFF8E1F1BD9A
:10004A00E1BD8DE0A2E0BB27ED938A95E9F780E058
:10005A0094E0A0E6ED930197E9F7E0E3F0E08591FB
:10006A009591009761F0A591B59105901590BF0102
:10007A00F00105900D920197E1F7FB01F0CFEFE552
:10008A00EDBFE4E0EEBFC0E6D1E050C10A92AA9308
:10009A00BA93EA93FA93EFB7EA93E3E8E2BF9B993C
:1000AA000BC07BD1E2E3E81531F488249394E3E0B2
:1000BA00E91508F4992404C0E2E38E1608F483943F
:1000CA0082993AC06AD1B394EAEFEB15A0F5BB2442
:1000DA00E92D69D1309731F4AA94E1E0EA1508F4E0
:1000EA00AE2E29C0E130A0E0FA0751F45ED138F013
:1000FA0063D128F468D118F06ED108F076D11BC00C
:10010A00E230A0E0FA0759F4E0916101EF5FE09371
:10011A006101EC3018F05FD108F067D10CC0E33010
:10012A00A0E0FA0741F4E0916201EF5FE093620117
:10013A00EC3008F05AD102C0E0EFBE2EA5E6B1E0DD
:10014A00ED91FD913196FE93EE93E032AEE4FA071B
:10015A000CF096C0992051F4E1E07E227E26A72D6C
:10016A00BB27EA2D20D1EA0FFB1F11C0E1E0AE2E1A
:10017A00E91509F47724E2E0E91511F4E1E07E2EAD
:10018A00E3E0E91511F4E2E07E2EE72D0CD1E05A06
:10019A00FE4FE081A1E0B0E043D1E0936301F09328
:1001AA0064019498C09825D1E17011F4AC9801C00B
:1001BA00AC9A1FD1F595E795E17011F4AA9801C0A0
:1001CA00AA9A17D143D1E17011F4A89801C0A89A4C
:1001DA0010D13AD1E17011F4A99801C0A99A09D1B4
:1001EA0031D1E17011F4C19801C0C19A07D1E5E09B
:1001FA000AD111F4979801C0979A00D1E6E003D189
:10020A0011F4969801C0969AF9D0E7E0FCD011F45F
:10021A00959801C0959AEDD01ED1E17011F493988A
:10022A0001C0939AEBD0E9E0EED011F4919801C0A5
:10023A00919AE4D0EAE0E7D011F4909801C0909A3C
:10024A00DDD0EBE0E0D011F4AD9801C0AD9AE0E06A
:10025A00E91519F0EDE7ED1568F470FC02C0949801
:10026A0001C0949AE72DE170A1E0EA2711F4C09841
:10027A0001C0C09AD394EAEFED1508F4DD2412C048
:10028A00E1E0AE2E66249924AC98AA98A898A99879
:10029A00C198979896989598939891989098AD98B0
:1002AA009498C098E991EFBFF991E991B991A99110
:1002BA0009901895AA93EA93EFB7EA93A895E0E014
:1002CA00E91521F45394E4E0E51508F00AC0552431
:1002DA006CD038F071D028F476D018F07CD008F0C1
:1002EA0084D0662071F49924E0E0E3BFEBB7E064C0
:1002FA008DD0E8B7E164E8BF7894E5B7E068E5BF78
:10030A008895E991EFBFE991A9911895EA93EFB71A
:10031A00EA93E5B7EF77E5BFEBB7EF7B77D07BD012
:10032A00E1E06E2EE991EFBFE9911895E0E0E8BBB4
:10033A00E3E0E7BBE8E0E5BBE7E3E4BBE4E0E2BB1C
:10034A00EBEFE1BB68D0E0E0EFBDEEBDEDBDECBD8B
:10035A00E7BDE6BDEBBDEABDE9BDE8BDE8E0E2BD4B
:10036A00E5E0E5BDE0E0E4BDE3BDEBB7E064EBBF8B
:10037A00E0E0E5BFE0E4EABFE1E4E9BFE0E0EAB9D2
:10038A00E0E8E8B9E0E0E0BFE6B9EDB9E6BFE5B715
:10039A00E063E5BF7894FFCFFFCFE0E0E09365012B
:1003AA00E09366010895F0E00895A0916001AF5FBF
:1003BA00A0936001AC300895E0E0E09360014394BB
:1003CA00E4E0E41508954424E0916101EF5FE093CD
:1003DA006101EC300895E0E0E0936101E09162018F
:1003EA00EF5FE0936201EC300895E0E0E093620190
:1003FA000895E0916301F09164010895A091630169
:10040A00B0916401089515D0E1700895EBBFEAB781
:10041A00E064EABF0895E2E0E3BFE3E8E2BF0895DB
:10042A00EE230E2EFD0121F0EE0FFF1F0A94E1F7D5
:10043A000895EE230E2EFD0121F0F595E7950A9415
:10044A00E1F70895F595E795F595E795F595E7951B
:10045A00F595E7950895EF2FFF27E7FDFFEF08953C
:00000001FF
